:020000040800F2
:100000003005002011030008F5020008F70200087F
:10001000FB020008FF0200080303000800000000C4
:1000200000000000000000000000000007030008BE
:1000300009030008000000000B0300080D0300087E
:100040002B0300082B0300082B0300082B030008D8
:100050002B0300082B0300082B0300082B030008C8
:100060002B0300082B0300082B0300082B030008B8
:100070002B0300082B0300082B0300082B030008A8
:100080002B0300082B0300082B0300082B03000898
:10009000492E00082B0300082B0300082B0300083F
:1000A0002B0300082B0300082B0300082B03000878
:1000B000273100082B0300082B0300082B0300083E
:1000C0002B0300082B0300082B0300082B03000858
:1000D0002B0300081B3800082B0300082B03000823
:1000E0002B0300082B0300082B0300082B03000838
:1000F0002B0300082B0300082B0300082B03000828
:100100002B0300082B0300082B0300082B03000817
:100110002B0300082B0300082B0300082B03000807
:100120002B0300082B0300082B0300082B030008F7
:100130002B0300082B0300082B0300082B030008E7
:100140002B0300082B0300082B0300082B030008D7
:100150002B0300082B0300082B0300082B030008C7
:100160002B0300082B0300082B0300082B030008B7
:100170002B0300082B0300082B0300082B030008A7
:100180002B0300082B030008DFF80CD003F020FF3E
:1001900000480047A10100083005002000BF70475B
:1001A000002400254FF4806000F0CCF902F037FD08
:1001B0004FF4165003F0B4FA02F0AEFD42F2CF0154
:1001C00041F2873002F082FF02F0C6FF03F072F8BE
:1001D00003F066FA4FF4FA7002F07EFD204602F05A
:1001E000BBFD284602F0B2FE23A003F003FF02206D
:1001F00002F0CEFF3EE0072003F065F923490860D6
:10020000082003F060F922490860052003F05BF93B
:1002100020490860062003F056F91F49086003F0E2
:100220002FF91E490860194801681DA003F0E2FE7D
:10023000174801681EA003F0DDFE1648016820A0E3
:1002400003F0D8FE1448016821A003F0D3FE134840
:10025000016823A003F0CEFE322002F03DFD6420B1
:1002600002F03AFD2248006808B9012000E00020B1
:100270001F490860BFE70000B4AEBFDAB4F2D3A1F3
:10028000B2E2CAD421212121210D0A0074000020EC
:10029000780000207C0000208000002084000020E6
:1002A000256420202020205053325F4C583A000013
:1002B000256420202020205053325F4C593A000002
:1002C000256420202020205053325F52583A0000ED
:1002D000256420202020205053325F52593A0000DC
:1002E0002564200D0A5053325F4B45593A000000F7
:1002F000B4024342704700BFFEE700BFFEE700BF05
:10030000FEE700BFFEE77047704770477047000088
:100310000648804706480047FEE7FEE7FEE7FEE79F
:10032000FEE7FEE7FEE7FEE7FEE7FEE71104000852
:10033000890100080CB50020019000907648006803
:1003400040F480307449086000BF7348006800F4CE
:10035000003000900198401C0190009818B9019855
:10036000B0F5A04FF1D16C48006800F4003010B136
:100370000120009001E0002000900098012846D163
:1003800065484030006840F0805063494031086063
:100390006248006840F44040604908605E480830A8
:1003A00000685D49083108600846006840F4004074
:1003B00008600846006840F4A05008605848091FCB
:1003C0000860081F006840F08070091F086000BFC7
:1003D0005148006800F000700028F9D040F2057024
:1003E000504908604C480830006820F003004A4932
:1003F000083108600846006840F00200086000BF4D
:1004000045480830006800F00C000828F8D10CBD01
:1004100010B54548006840F47000434908603E4804
:10042000006840F001003C49086000203A4908316A
:100430000860394800683D490840374908603C4831
:10044000091D0860081F006820F48020091F08604B
:10045000002031490C310860FFF76CFF4FF000605D
:1004600031498039086010BD70B500200022022398
:1004700000240221284D08352D6805F00C0020B11C
:10048000042806D0082834D107E02A4D2A4E3560CA
:1004900033E02A4D284E35602FE01F4D2D1D2D686D
:1004A000C5F380541C4D2D1D2D6805F03F0154B13E
:1004B000224DB5FBF1F5184E361D3668C6F3881689
:1004C00005FB06F209E01B4DB5FBF1F5124E361D9A
:1004D0003668C6F3881605FB06F20F4D2D1D2D68F4
:1004E000C5F301456D1C6B00B2FBF3F5124E356090
:1004F00003E0104D104E356000BF00BF064D0835BB
:100500002D68C5F303150E4E705D0B4D2D68C5406B
:10051000094E356070BD0000003802400070004098
:1005200008544007003C024088ED00E0FFFFF6FE63
:10053000103000240024F4000800002000127A008B
:100540000C00002032490143324A1160704770B5F7
:10055000002100230F22C4781CB32E4C246804F41D
:10056000E064C4F5E064C4F30721C1F10404E3B21C
:100570000A4144789C40E1B28478144021430C073E
:10058000210E254C05786155047804F01F050124DF
:10059000AC4005786D11AD0005F1E025C5F80041CE
:1005A00009E0047804F01F050124AC401B4D0678D7
:1005B000761145F8264070BD194A0A400243154B92
:1005C0001B1F1A60704739B1124A121D126802438C
:1005D000104B1B1D1A6006E00E4A121D1268824362
:1005E0000C4B1B1D1A607047042808D14FF0E02106
:1005F000096941F004014FF0E022116107E04FF07A
:10060000E021096921F004014FF0E02211617047F7
:100610000000FA050CED00E000E400E080E100E0FD
:1006200080FFFF1F10B504469848844208D101217D
:10063000084600F086FB0021012000F082FB76E0F6
:100640009348844208D10121022000F07AFB002166
:10065000022000F076FB6AE08E48844208D1012136
:10066000042000F06EFB0021042000F06AFB5EE035
:100670008948844208D10121082000F062FB002152
:10068000082000F05EFB52E08448844208D101213A
:10069000102000F056FB0021102000F052FB46E035
:1006A0007F48844208D10121202000F04AFB00212C
:1006B000202000F046FB3AE07A48844208D101212C
:1006C000402000F03EFB0021402000F03AFB2EE0ED
:1006D0007548844208D10121802000F032FB0021BE
:1006E000802000F02EFB22E07048844208D10121D6
:1006F000801500F026FB0021A01500F022FB16E07B
:100700006B48844208D10121401500F01AFB0021FA
:10071000601500F016FB0AE06648844207D101210B
:10072000001500F00EFB0021201500F00AFB10BDA3
:10073000F0B50A4600210023002400BF3DE001255A
:1007400005FA01F3156805EA03049C4234D10568F3
:100750004F000326BE40B543056015794E00B540F5
:100760000668354305601579012D02D01579022DF3
:1007700016D185684F000326BE40B5438560557984
:100780004E00B540866835438560456801268E4039
:10079000B5434560456896798E40B6B235434560AD
:1007A000C5684F000326BE40B543C560D5794E00ED
:1007B000B540C6683543C560491C1029BFD3F0BD9C
:1007C0004FF6FF7101600021017141718171C171AA
:1007D000704708B54FF480320092009A0A430092A5
:1007E000009AC261C161009AC261C2690092C26985
:1007F000009208BD0246002013690B400BB1012096
:1008000000E0002070470146086980B27047024648
:10081000002053690B400BB1012000E0002070471D
:100820000146486980B27047018370474183704731
:100830000AB1018300E0418370474161704742691A
:100840004A4042617047F0B5002300244D07ED0E89
:1008500002FA05F3CE1000F1200555F826504E0798
:10086000F70E0F26BE40B543CF1000F1200646F824
:100870002750CE1000F1200555F8265045EA030414
:10088000CE1000F1200545F82640F0BD00000240E2
:100890000004024000080240000C02400010024028
:1008A0000014024000180240001C024000200240D8
:1008B0000024024000280240F948006840F001008E
:1008C000F74908600020F64908310860F4480068DC
:1008D000F4490840F2490860F348091D0860F348EC
:1008E000EF4984310860F0481038091D0860EC4871
:1008F000006820F48020EA4908600020E8490C31B3
:100900000860E7498C31086070470021E44A921C76
:10091000117011460870704710B50146002200237F
:1009200000204A11012A02D1DD4C236808E0022A86
:1009300003D1DB4C7034236802E0D94C7434236853
:1009400001F01F02012494401C400CB1012000E082
:10095000002010BD38B5002000900024002500BF05
:100960003120FFF7D9FF05460098401C0090009801
:10097000B0F5A04F01D0002DF2D03120FFF7CCFF11
:1009800008B1012400E00024204638BD01460020C3
:10099000C34A106820F0F80040EAC10010607047B8
:1009A000C349086070470021BD4A70321170117050
:1009B000012802D004280AD104E00121B84A70328B
:1009C000117005E00521B64A7032117000E000BFD9
:1009D00000BF7047B7490860704770B5049C41EA92
:1009E00082150126C6EB530645EA0645054345EA4E
:1009F0000465AB4E361D356070BDAD490866704765
:100A0000820142EA0172A64B84331A607047A849FA
:100A10008866704710B5830143EA016343EA0273B5
:100A20009F4C8834236010BDA14908677047A049D6
:100A3000C864704702460020994B0833186820F0BC
:100A4000EC6042EA01031843954B08331860704785
:100A500002460020924B0833186820F0784042EAA2
:100A6000010318438E4B083318607047014600207D
:100A70008B4A0832106820F003000843106070476A
:100A800087480830006800F00C00704701460020DD
:100A9000834A0832106820F0F00008431060704765
:100AA000014600207E4A0832106820F4E0500843D6
:100AB0001060704701460020794A0832106820F41F
:100AC000604040EAC10010607047F0B5002100228C
:100AD0000024022500260223714F08373F6807F0E3
:100AE0000C0121B1042905D0082937D105E0724F46
:100AF000076036E0714F076033E0694F3F1D3F6884
:100B0000C7F38056664F3F1D3F6807F03F036EB145
:100B10006A4FB7FBF3F7DFF888C10CF1040CDCF87F
:100B200000C0CCF3881C07FB0CF40CE0624FB7FB51
:100B3000F3F7DFF86CC10CF1040CDCF800C0CCF367
:100B4000881C07FB0CF4564F3F1D3F68C7F3014755
:100B50007F1C7D00B4FBF5F7076002E0564F07608D
:100B600000BF00BF4E4F08373F6807F0F00109098A
:100B7000534F7A5C0768D7404760494F08373F6852
:100B800007F4E051890A4E4F7A5C4768D740876086
:100B9000434F08373F6807F46041490B484F7A5C80
:100BA0004768D740C760F0BD002100F44072B2F53D
:100BB000407F0AD13A4A0832116821F4F811414ABB
:100BC00002401143364A08321160354A70321268C9
:100BD000C0F30B031A43324B70331A607047354928
:100BE00044390860704733494039086070473649D6
:100BF0000860704701460020294A8C32106820F0B6
:100C00001F004A1E1043264A8C321060704701466E
:100C10000020234A8C32106820F4F8504A1E40EA23
:100C200002201F4A8C3210607047014600201C4A87
:100C30008C32106820F44010084310607047014661
:100C40000020174A8C32106820F4400008431060DE
:100C5000704701460020124A8C32106820F4403060
:100C600008431060704719490860704739B10C4A51
:100C70003032126802430A4B30331A6006E0084AE9
:100C8000303212688243064B30331A607047F9B134
:100C9000034A343212680243014B34331A601CE0B9
:100CA00000380240FFFFF6EA103000240030002038
:100CB00000004742800E47420024F40000127A00F0
:100CC0001C000020FFFCFF0F5C014742E01147427F
:100CD0008F4A126882438E4B1A60704739B18C4A32
:100CE000121D126802438A4B1B1D1A6006E0884AD7
:100CF000121D12688243864B1B1D1A60704739B162
:100D0000834A0C3212680243814B0C331A6006E0AE
:100D10007F4A0C32126882437D4B0C331A60704755
:100D200039B17B4A103212680243794B10331A6092
:100D300006E0774A103212688243754B10331A600E
:100D4000704739B1724A243A12680243704B243B0F
:100D50001A6006E06E4A243A126882436C4B243BC8
:100D60001A60704739B16A4A203A12680243684BE8
:100D7000203B1A6006E0664A203A12688243644BC0
:100D8000203B1A60704739B1614A1C3A126802432D
:100D90005F4B1C3B1A6006E05D4A1C3A12688243B6
:100DA0005B4B1C3B1A60704739B1594A143A1268C0
:100DB0000243574B143B1A6006E0554A143A126836
:100DC0008243534B143B1A60704739B1504A103A72
:100DD000126802434E4B103B1A6006E04C4A103A30
:100DE000126882434A4B103B1A60704739B1484A37
:100DF0001C3212680243464B1C331A6006E0444A18
:100E00001C3212688243424B1C331A60704739B15E
:100E10003F4A2032126802433D4B20331A6006E0FD
:100E20003B4A203212688243394B20331A607047A4
:100E300039B1374A243212680243354B24331A60E1
:100E400006E0334A243212688243314B24331A605D
:100E5000704739B12E4A2C32126802432C4B2C3386
:100E60001A6006E02A4A2C3212688243284B2C333F
:100E70001A60704739B1264A303212680243244B57
:100E800030331A6006E0224A303212688243204B27
:100E900030331A607047012808D11D493C31096878
:100EA00041F008011A4A3C32116007E018493C3110
:100EB000096821F00801164A3C321160704739B1C7
:100EC000134A273A12780243114B273B1A7006E067
:100ED0000F4A273A127882430D4B273B1A7070470E
:100EE0000B484030006840F080700949403108608C
:100EF000704701460020064A283A12680A400AB1A3
:100F0000012000E000207047014926390870704731
:100F10003438024010B50446FA48844208D1012111
:100F20001020FFF752FF00211020FFF74EFF57E07F
:100F3000F548844209D101214804FFF735FF00211B
:100F40004FF40030FFF730FF4AE0F048844209D107
:100F500001218804FFF728FF00214FF48020FFF7CC
:100F600023FF3DE0EA48844209D10121C804FFF78C
:100F70001BFF00214FF40020FFF716FF30E0E5488B
:100F8000844209D101210805FFF70EFF00214FF42B
:100F90008010FFF709FF23E0DF48844208D10121D8
:100FA0002020FFF712FF00212020FFF70EFF17E09F
:100FB000DA48844209D101218807FFF7F5FE0021B4
:100FC0004FF08040FFF7F0FE0AE0D548844207D199
:100FD00001214005FFF7E8FE00216005FFF7E4FE70
:100FE00010BD2DE9FF4705460E460024A14600BF6F
:100FF000A046B08900B100BF2C8A24F44054F08888
:1010000004432C82AC8941F20C608443B08831895E
:101010000843718908430443AC81AC8A24F44074CA
:10102000B0890443AC826846FFF74FFDB54885425E
:1010300002D0B948854202D1DDF80C9001E0DDF81C
:101040000890A88900F4004040B109EBC90000EB0A
:10105000091031684900B0FBF1F707E009EBC9005E
:1010600000EB091031688900B0FBF1F76420B7FB91
:10107000F0F004012009642101FB1078A88900F434
:10108000004040B1322000EBC800B0FBF1F000F0AE
:101090000700044308E0322000EB08106421B0FB95
:1010A000F1F000F00F0004432C81BDE8FF874FF4FE
:1010B0001651016000218180C18001810C21418194
:1010C00000218181704710B502460020108A20F46B
:1010D00070600B884C8823438C882343CC8823433F
:1010E0001843108210BD0021018041808180C180A1
:1010F000704721B1828942F40052828104E08289E2
:101100004DF6FF731A4082817047028B02F47F42D2
:101110000283028B0A430283704721B1828942F421
:101120000042828103E08289C2F30E02828170470D
:1011300021B1828A42F40062828204E0828A4FF204
:10114000FF731A4082827047C1F3080282807047A1
:1011500001468888C0F308007047028A4FF6F07392
:101160001A400282028A0A430282704721B18289B0
:1011700042F00202828104E082894FF6FD731A4038
:101180008281704782894FF2FF731A40828182897F
:101190000A4382817047028A4FF6DF731A40028247
:1011A000028A0A430282704721B1028A42F48042D5
:1011B000028204E0028A4BF6FF731A4002827047F3
:1011C000818941F001018181704721B1828A42F019
:1011D0000802828204E0828A4FF6F7731A40828204
:1011E0007047028BD2B20283028B42EA0122028351
:1011F000704721B1828A42F02002828204E0828A12
:101200004FF6DF731A408282704721B1828A42F022
:101210001002828204E0828A4FF6EF731A408282C3
:101220007047828A4FF6FB731A408282828A0A4391
:101230008282704721B1828A42F00202828204E0F7
:10124000828A4FF6FD731A40828270471AB1838AF0
:101250000B43838202E0838A8B4383827047F0B51D
:101260000346002400260025002040F66A17B942F4
:1012700000D100BF1846C1F3421401F01F06012738
:1012800007FA06F5012C01D10C3004E0022C01D143
:10129000103000E014301AB107682F43076002E0F5
:1012A0000768AF430760F0BD02460020B1F5007F3C
:1012B00000D100BF13880B400BB1012000E00020DB
:1012C000704701F40072B2F5007F00D100BFCA433D
:1012D0000280704770B502460024002300250020DC
:1012E00040F66A16B14200D100BFC1F3421501F0C9
:1012F0001F03012606FA03F3012D13D1968933400B
:1013000017E0000000100140004400400048004089
:10131000004C0040005000400014014000780040A4
:10132000007C0040022D02D1168A334001E0968AEB
:1013300033400C12012606FA04F41688344013B127
:101340000CB1012000E0002070BD10B50022002388
:1013500040F66A14A14200D100BF0A120124944051
:10136000A3B2DC43048010BD10B50446FE4884429D
:1013700009D101214806FFF717FD00214FF0007049
:10138000FFF712FD08E001218806FFF70DFD00219F
:101390004FF08060FFF708FD10BD30B50246002019
:1013A0000023146824F002041460146844F001045B
:1013B000146000E05B1C546804F001041CB94FF693
:1013C000FF74A342F6D1546804F001040CB9002064
:1013D0006CE08C79012C04D1146844F08004146012
:1013E00003E0146824F080041460CC79012C04D14B
:1013F000146844F04004146003E0146824F04004CE
:1014000014600C7A012C04D1146844F02004146098
:1014100003E0146824F0200414604C7A012C04D1F9
:10142000146844F01004146003E0146824F01004FD
:1014300014608C7A012C04D1146844F00804146000
:1014400003E0146824F008041460CC7A012C04D161
:10145000146844F00404146003E0146824F00404E5
:1014600014608C78A407CD7844EA05640D7944EAC9
:1014700005444D7944EA05540D886D1E2C43D46112
:10148000146824F001041460002300E05B1C54681D
:1014900004F001041CB14FF6FF74A342F6D1546866
:1014A00004F001040CB1002000E0012030BD10B5B3
:1014B0000021837A012202FA03F1AC4A126842F059
:1014C0000102AA4B1A60A94A1C3212688A43A74B30
:1014D0001C331A60027BCAB9A44A0C3212688A43D0
:1014E000A24B0C331A604288C38842EA03439F4AE6
:1014F0004032847A42F834300288838842EA0343D7
:101500009A4A4032847A02EBC4025360027B012A79
:1015100019D1964A0C3212680A43944B0C331A6064
:101520004288038842EA0343904A4032847A42F870
:101530003430C288838842EA03438C4A4032847A3A
:1015400002EBC4025360C27A3AB9884A121D12688B
:101550008A43864B1B1D1A6006E0844A121D1268DE
:101560000A43824B1B1D1A60028932B97F4A14322A
:1015700012688A437D4B14331A600289012A06D10E
:101580007A4A143212680A43784B14331A60427B49
:10159000012A06D1754A1C3212680A43734B1C3368
:1015A0001A60724A126822F00102704B1A6010BD74
:1015B00000218171C171017241728172C1728170A9
:1015C000C170032101710221417101210180704725
:1015D0006649096841F00101644A116011460968D1
:1015E00043F60E729143614A11601146096841EA5F
:1015F000002111601146096821F001011160704756
:1016000021B1026842F48032026003E0026822F4F1
:10161000803202607047E1B1026842F080020260ED
:101620004FF4C272125842F480734FF4C2721350D6
:101630004FF4CA72125842F480734FF4CA721350B6
:101640004FF4D272125842F480734FF4D272135096
:101650001BE0026822F0800202604FF4C27212584E
:1016600022F480734FF4C27213504FF4CA721258AE
:1016700022F480734FF4CA7213504FF4D27212588E
:1016800022F480734FF4D2721350704710B50246A3
:101690000020936803F08063B3F1806F00D110E005
:1016A000936803F00063B3F1006F01D1012008E0FB
:1016B000936803F08053B3F1805F01D1022000E012
:1016C0000420042879D002F5C07303EB00131B68D3
:1016D00003F0010402F5C07303EB00131C600B7AE6
:1016E0007BB94B7A0C8843EA445302F5C07404EB8F
:1016F00000142468234302F5C07404EB0014236033
:1017000010E00B7A4C6843EAC4034C7A234302F599
:10171000C07404EB00142468234302F5C07404EB86
:10172000001423608B7A03F00F038B7202F5C073F1
:1017300003EB00135B6823F00F0402F5C07303EBA7
:1017400000135C6002F5C07303EB00135B688C7AD6
:10175000234302F5C07404EB001463608B7B1C060A
:101760004B7B44EA034403E0006400400066004011
:101770000B7B44EA0323CC7A234302F5C07404EBC9
:101780000014A3608B7C1C064B7C44EA03440B7C56
:1017900044EA0323CC7B234302F5C07404EB00141A
:1017A000E36002F5C07303EB00131B6843F0010410
:1017B00002F5C07303EB00131C6010BD10B50246A8
:1017C000002321B1012907D002290FD109E0906837
:1017D000F94C00EA04030BE09068F84C00EA0403BB
:1017E00006E09068F64C00EA040301E0002300BF25
:1017F00000BFF44C181BA34216D007DC83B16FF076
:101800008060184470B1022818D111E0B0F5007F53
:1018100010D0ED4C204448B1B0F5003F0ED10BE0A4
:1018200002230DE000230BE0002309E0002307E082
:10183000012305E0012303E0012301E0002300BFB1
:1018400000BFD8B210BD21B1012907D002290FD1A4
:1018500009E0826842F0800282600AE0826842F415
:101860000042826005E0826842F40002826000E08B
:1018700000BF00BF704710B500F5D87303EB01132C
:101880001B6803F004031372137A53B900F5D8737D
:1018900003EB01131B6840F2FF7404EA5353136017
:1018A00009E000F5D87303EB01131B686FF0604487
:1018B00004EAD303536000F5D87303EB01131B68EC
:1018C00003F00203537200F5D87303EB01135B6856
:1018D00003F00F03937200F5D87303EB01135B68F9
:1018E0001B0AD37400F5D87303EB01139B68D37202
:1018F00000F5D87303EB01139B681C0A147300F501
:10190000D87303EB01139B681C0C547300F5D87358
:1019100003EB01139B681B0E937300F5D87303EB65
:101920000113DB68D37300F5D87303EB0113DB6895
:101930001C0A147400F5D87303EB0113DB681C0C4C
:10194000547400F5D87303EB0113DB681B0E93741A
:1019500021B9C36843F02003C36003E0036943F087
:101960002003036110BD21B9C26842F02002C260A9
:1019700003E0026942F02002026170470246002043
:1019800019B9D36803F0030006E0012903D11369F4
:1019900003F0030000E00020704710B502460B463C
:1019A00000204FF6FF71BBB9146824F0020444F024
:1019B0000104146000E0491E546804F00304012C83
:1019C00001D00029F7D1546804F00304012C01D0A0
:1019D000002032E0012030E0012B13D1146824F004
:1019E0000304146000E0491E546804F003040CB1C1
:1019F0000029F8D1546804F003040CB100201CE065
:101A000001201AE0022B17D1146824F0010444F0DD
:101A10000204146000E0491E546804F00304022C20
:101A200001D00029F7D1546804F00304022C01D03E
:101A3000002002E0012000E0002010BD014600204F
:101A40000A6822F0010242F002020A604A6802F0CB
:101A50000302022A00D10120704701464FF6FF72AF
:101A600000200B6823F002030B6000E0521E4B685D
:101A700003F00203022B01D1002AF7D14B6803F0D7
:101A80000203022B00D001207047014600208A6922
:101A900002F070007047014600208A69100E7047FE
:101AA000014600208A69C2F3074070471AB14369B2
:101AB0000B43436102E043698B434361704710B5B8
:101AC0000246002001F4700343B19369C1F313048B
:101AD00023400BB101202DE000202BE001F08073AA
:101AE00043B15368C1F3130423400BB1012021E03B
:101AF00000201FE001F0006343B19368C1F31304B9
:101B000023400BB1012015E0002013E001F0007329
:101B100043B1D368C1F3130423400BB1012009E0A2
:101B2000002007E01369C1F3130423400BB1012027
:101B300000E0002010BD0022244B994202D1002376
:101B4000836111E0C1F3130201F000730BB1C260B5
:101B50000AE001F080630BB1026105E001F000636F
:101B60000BB1826000E0426070470246002002EA4A
:101B700001030BB1012000E00020704770B504465E
:101B80000D46002660692840002872D0B5F5807F98
:101B900069D01DDC082D42D006DC012D2DD0022D90
:101BA00031D0042D7FD134E0102D3ED0202D42D0F5
:101BB000402D78D145E00000030000040003000838
:101BC00000000310000100080001FFF77000F03072
:101BD000B5F5004F61D009DCB5F5007F4AD0B5F509
:101BE000806F4DD0B5F5006F5DD150E0B5F5803F09
:101BF0002DD0B5F5003F56D12FE0A0685549FFF72D
:101C0000B4FF064651E0E0680321FFF7AEFF064649
:101C10004BE0E0680821FFF7A8FF064645E0E068D2
:101C20001021FFF7A2FF06463FE020690321FFF7DE
:101C30009CFF064639E020690821FFF796FF06461B
:101C400033E020691021FFF790FF06462DE0606821
:101C50000821FFF78AFF064627E060681021FFF79A
:101C600084FF064621E0A0690121FFF77EFF0646BA
:101C70001BE01BE0A0690221FFF777FF064614E096
:101C8000A0690421FFF771FF06460EE00BE0A06992
:101C90007021FFF76AFF064607E060680421FFF73E
:101CA00064FF064601E0002600BF00E00026304643
:101CB00070BDB1F5007F3AD00FDC202928D006DCBA
:101CC00001291CD004291DD0082940D11DE040293C
:101CD00021D0B1F5807F3AD126E0B1F5004F31D067
:101CE00006DCB1F5806F25D0B1F5006F2FD124E06F
:101CF000B1F5803F12D0B1F5003F28D111E0154A6F
:101D0000826025E00822C26022E01022C2601FE04B
:101D1000082202611CE01022026119E008224260E0
:101D200016E01022426013E00422426010E0042218
:101D300042600DE0042242600AE000228261042237
:101D4000426005E0002282610422426000E000BFA0
:101D500000BF70470101010010B50446FE488442EF
:101D600008D101210846FFF730F800210120FFF7D4
:101D70002CF89DE0B4F1804F08D101210846FFF70F
:101D800013F800210120FFF70FF891E0F348844297
:101D900008D101210220FFF707F800210220FFF7F8
:101DA00003F885E0EE48844208D101210420FEF7C3
:101DB000FBFF00210420FEF7F7FF79E0E9488442A9
:101DC00008D101210820FEF7EFFF00210820FEF7CF
:101DD000EBFF6DE0E448844208D101211020FEF7BA
:101DE000E3FF00211020FEF7DFFF61E0DF488442BF
:101DF00008D101212020FEF7D7FF00212020FEF787
:101E0000D3FF55E0DA48844208D101210220FEF7D1
:101E1000DCFF00210220FEF7D8FF49E0D5488442CC
:101E200009D101210804FEF7D0FF00214FF48030D2
:101E3000FEF7CBFF3CE0D048844209D101214804A1
:101E4000FEF7C3FF00214FF40030FEF7BEFF2FE086
:101E5000CA48844209D101218804FEF7B6FF002157
:101E60004FF48020FEF7B1FF22E0C548844208D13C
:101E700001214020FEF798FF00214020FEF794FF4B
:101E800016E0C048844208D101218020FEF78CFF73
:101E900000218020FEF788FF0AE0BB48844207D17A
:101EA00001218015FEF780FF0021A015FEF77CFFC1
:101EB00010BD00220288A84B98420ED0AC4B98422D
:101EC0000BD0B0F1804F08D0A44B984205D0A44B62
:101ED000984202D0A34B984204D14FF68F731A4018
:101EE0004B881A43A04B984207D0A04B984204D08D
:101EF0004FF6FF431A400B891A4302804B68C362B6
:101F00000B880385944B984202D0994B984201D19B
:101F10008B7A03860123838270474FF0FF31416043
:101F20000021018001814180817270470185828298
:101F300070470A46002101884FF68F7319401143FC
:101F40000180704741627047C16270470146486A2C
:101F500070470146088D704721B1028842F00202A5
:101F6000028004E002884FF6FD731A400280704739
:101F700021B1028842F00402028004E002884FF698
:101F8000FB731A400280704721B1028842F0800240
:101F9000028004E002884FF67F731A400280704787
:101FA00002884FF6F7731A40028002880A430280C3
:101FB000704702884FF6FF431A40028002880A43A6
:101FC0000280704721B1028842F00102028004E0E1
:101FD00002884FF6FE731A400280704770B50024E5
:101FE00000220023058C4FF6FE7635400584028CD6
:101FF0008388048B4FF68F752C40B51E2C400D88BE
:102000002C43751E2A408D892A434D882A43524D00
:10201000A84202D0564DA84213D14FF6F7752A4078
:10202000CD892A434FF6FB752A408D882A434FF607
:10203000FF652B404FF6FF552B400D8A2B434D8AF1
:102040002B43838004838D684563028470BD70B523
:10205000002400220023058C4FF6EF7635400584DE
:10206000028C8388048B48F6FF752C404FF6FF45A1
:102070002C400D884FF6FF7606EA05252C434FF6D7
:10208000DF752A408D8906EA05152A434D8806EA40
:1020900005152A43304DA84202D0354DA8421DD126
:1020A0004FF67F752A40CD894FF6FF7606EA051573
:1020B0002A434FF6BF752A408D8806EA05152A4344
:1020C0004FF6FF352B404FF2FF752B400D8A06EA85
:1020D00085052B434D8A06EA85052B4383800483BF
:1020E0008D688563028470BD70B5002400220023D2
:1020F000058C4FF6FF6635400584028C8388848BFF
:102100004FF68F752C404FF6FC752C400D882C43F4
:102110004FF6FF552A408D894FF6FF7606EA0525D2
:102120002A434D8806EA05252A430B4DA84202D0D2
:102130000F4DA84238D14FF2FF752A40CD894FF696
:10214000FF7606EA05252A434FF6FF352A408D889B
:1021500006EA05252A4319E000000140000400407A
:1021600000080040000C0040001000400014004037
:10217000000401400040014000440140004801408B
:1021800000180040001C0040002000404EF6FF7583
:102190002B404DF6FF752B400D8A06EA05152B43A3
:1021A0004D8A06EA05152B43838084838D68C563B9
:1021B000028470BD70B5002200230024058C4EF609
:1021C000FF7635400584038C8488828B48F6FF7542
:1021D0002A404FF6FF452A400D884FF6FF7606EA63
:1021E00005252A434DF6FF752B408D8906EA0535F6
:1021F0002B434D8806EA05352B43FE4DA84202D0FD
:10220000FD4DA84208D14BF6FF752C400D8A4FF6C4
:10221000FF7606EA85152C43848082838D680564E9
:10222000038470BD002101804180818081608181B3
:10223000C18101824182704770B5034600200024AD
:102240001846183001258D40ACB21D8CA5431D8465
:1022500009B108290AD100EB610005684FF68F76B5
:10226000354005600568154305600FE00D1FC5F397
:102270004E052844056848F6FF7635400560056838
:102280004FF6FF7606EA02263543056070BD4163CE
:10229000704781637047C1637047016470470A46A5
:1022A0000021018B4FF68F73194011430183704752
:1022B0000A460021018B48F6FF7319404FF6FF7361
:1022C00003EA02231943018370470A460021818BE8
:1022D0004FF68F7319401143818370470A460021DE
:1022E000818B48F6FF7319404FF6FF7303EA022310
:1022F0001943818370470A460021018B4FF6F7731B
:1023000019401143018370470A460021018B4FF2A7
:10231000FF7319404FF6FF7303EA02231943018349
:1023200070470A460021818B4FF6F773194011431D
:10233000818370470A460021818B4FF2FF73194059
:102340004FF6FF7303EA02231943818370470A465D
:102350000021018B4FF6FB73194011430183704735
:102360000A460021018B4FF6FF3319404FF6FF73E9
:1023700003EA02231943018370470A460021818B37
:102380004FF6FB7319401143818370470A460021C1
:10239000818B4FF6FF3319404FF6FF7303EA022398
:1023A0001943818370470A460021018B4FF67F73E2
:1023B00019401143018370470A460021018BC1F384
:1023C0000E014FF6FF7303EA02231943018370479E
:1023D0000A460021818B4FF67F7319401143818398
:1023E00070470A460021818BC1F30E014FF6FF733F
:1023F00003EA02231943818370470A460021018CB6
:102400004FF6FD7319401143018470470A460021BD
:10241000018C4FF6F77319401143018470470A4647
:102420000021018C4FF6DF7319404FF6FF7303EA6A
:1024300002131943018470470A460021018C4FF6AC
:102440007F7319404FF6FF7303EA021319430184A7
:1024500070470A460021018C4FF6FF5319404FF692
:10246000FF7303EA02231943018470470A460021DF
:10247000018C4FF2FF7319404FF6FF7303EA0223FA
:102480001943018470470A460021018C4DF6FF7301
:1024900019404FF6FF7303EA023319430184704772
:1024A00030B5002301248C40A3B2048C9C430484E7
:1024B000048C02FA01F5ADB22C43048430BD30B572
:1024C000002304248C40A3B2048C9C430484048C19
:1024D00002FA01F5ADB22C43048430BD828B4FF279
:1024E000FF331A408283828B4FF6FF7303EA012386
:1024F0001A4382837047F0B50C461546002100222E
:102500000026078C4EF6FF7C07EA0C070784818BB8
:10251000028C4FF6FF7707EA043640F6FF47394052
:102520004FF6FF7707EA052739434FF6FF7707EAAB
:102530000337394345F6FF773A4046F480573A432C
:1025400081830284F0BD828B4FF6F3731A4082833D
:10255000828B0A4382837047F0B50C4615460021F2
:1025600000220026078C4FF6FF6C07EA0C07078451
:10257000818B028C4FF6FF7707EA04264FF60C7723
:1025800039404FF6FF7707EA03172F4339434FF2DD
:10259000FF573A4046F480773A4381830284F0BD86
:1025A000028B4FF2FF331A400283028B4FF6FF7308
:1025B00003EA01231A4302837047F0B50C4615461F
:1025C000002100220026078C4FF6EF7C07EA0C075B
:1025D0000784018B028C4FF6FF7707EA041640F65A
:1025E000FF4739404FF6FF7707EA033739434FF685
:1025F000FF7703E0000001400004014007EA0527DF
:1026000039434FF65F773A4046F010073A4301836B
:102610000284F0BD028B4FF6F3731A400283028BE3
:102620000A4302837047F0B50C461546002100228C
:10263000068C4FF6FE773E400684018B028C4FF6E7
:102640000C7631407E1C06EA03162E4331434FF6CA
:10265000F576324044F00106324301830284F0BD36
:1026600070B505460C46208850B92389A288618838
:102670002846FFF7D8FFE1882846FFF7CBFF25E083
:10268000208804280AD12389A28861882846FFF778
:1026900094FFE1882846FFF783FF17E02088082889
:1026A0000AD12389A28861882846FFF755FFE1886F
:1026B0002846FFF748FF09E02389A2886188284659
:1026C000FFF719FFE1882846FFF708FF70BD0021DA
:1026D00001804180012181800021C18001817047FA
:1026E0002DE9F04105460C4600260127608808B90F
:1026F000022600E00026A088012801D1022700E080
:1027000001272088A0B92389A28861882846FFF77D
:102710008AFFE1882846FFF77DFF23893A46314644
:102720002846FFF74AFFE1882846FFF739FF13E004
:102730002389A28861882846FFF73FFFE188284661
:10274000FFF72EFF23893A4631462846FFF76BFFF5
:10275000E1882846FFF75EFFBDE8F0810146486B3F
:1027600070470146886B70470146C86B7047014649
:10277000086C70470A884B881A438B881A43CB88A9
:102780001A430B891A434B891A438B891A43A0F8C1
:10279000442070470021018041808180C1800181F7
:1027A00041818181704731B1B0F8442042F4004248
:1027B000A0F8442005E0B0F84420C2F30E02A0F8CF
:1027C0004420704721B1828842F00402828004E0F4
:1027D00082884FF6FB731A408280704721B182884D
:1027E00042F00102828004E082884FF6FE731A40B4
:1027F000828070471AB183890B43838102E0838909
:102800008B43838170478182704702460020138A80
:102810000B400BB1012000E000207047CA43028248
:10282000704730B50246002000230024158A05EACF
:102830000103958905EA010413B10CB1012000E000
:10284000002030BDCA430282704741EA0203A0F86B
:10285000483070471AB183890B43838102E0838932
:102860008B438381704721B1828842F008028280C5
:1028700004E082884FF6F7731A408280704701891E
:102880004FF6F8721140018170470A460021018914
:102890004FF68F73194011430181704730B50446DC
:1028A0000D4629462046FFF7F0FF208940F007003B
:1028B000208130BD2DE9F04104460D4616461F46E5
:1028C000602D06D13B46012231462046FFF775FEBA
:1028D00005E03B46012231462046FFF7A4FE29468B
:1028E0002046FFF7D2FF208940F007002081BDE895
:1028F000F08130B50C4600210189C9B24FF6FF7551
:1029000005EA0325154325432943018130BD2DE9FF
:10291000F04105460E4617469846002443463A467F
:1029200031462846FFF7E5FF2C894FF6F870044042
:1029300044F007044FF68F70044044F070042C817B
:10294000BDE8F081F0B504460D4616461F463B46ED
:10295000324629462046FFF7CCFF208940F48040CC
:102960002081F0BD82884FF68F731A408280828862
:102970000A438280704702894FF6F8731A40028139
:1029800002890A430281704702894FF67F731A4019
:10299000028102890A4302817047F0B50C46154650
:1029A0001E460021002200230189028B038C4FF672
:1029B000F877394021434FF6FC473A4040F201177F
:1029C0003A434FF6DD773B404FF6FF7707EA0617AD
:1029D0002F433B43018102830384F0BD21B18288F0
:1029E00042F08002828004E082884FF67F731A40B2
:1029F00082807047A0F85010704700000A460021FE
:102A0000DBE0D30B002B75D0102971D2DFE801F089
:102A1000080F161D242B323940464C52585E646A0A
:102A2000038823F4004303F50043038060E0038838
:102A300023F4804303F58043038059E0038823F4A3
:102A4000005303F50053038052E0038823F48053BE
:102A500003F5805303804BE0038823F4006303F500
:102A60000063038044E0038823F4806303F58063FC
:102A700003803DE0038823F4007303F500730380B3
:102A800036E0038823F4807303F5807303802FE01E
:102A9000038823F080038033038029E0038823F038
:102AA00040034033038023E0038823F020032033D6
:102AB00003801DE0038823F010031033038017E028
:102AC000038823F008030833038011E0038823F010
:102AD00004031B1D03800BE0038823F002039B1CEF
:102AE000038005E0038823F001035B1C038000BF23
:102AF0005DE0FFE7102959D2DFE801F0080D121759
:102B00001C21262B30353A3F44494E53038823F489
:102B1000004303804AE0038823F48043038045E0B8
:102B2000038823F40053038040E0038823F4805398
:102B300003803BE0038823F40063038036E00388CE
:102B400023F48063038031E0038823F4007303805F
:102B50002CE0038823F48073038027E0038823F0AC
:102B60008003038022E0038823F0400303801DE0FC
:102B7000038823F02003038018E0038823F0100368
:102B8000038013E0038823F0080303800EE003882A
:102B900023F00403038009E0038823F00203038089
:102BA00004E0038823F00103038000BF00BF4FF659
:102BB000FF7303EA42024B1CD9B21029FFF621AF82
:102BC0007047F0B51C46002600250123C1F110070F
:102BD000974202DAC1F11007FAB20E46002E0CDD60
:102BE00005E0EF18BDB24FF6FF7707EA4303371E43
:102BF000A6F1010C0CF0FF06F3D1D0F814C04FF68B
:102C0000FF7797408F402F430CEA070CC0F814C0A1
:102C1000476904FA01FC47EA0C074761F0BD10B5AB
:102C20006FF00400FDF7E0FC1520394908700846F4
:102C3000007800EB4001C1EBC0104FF6FF7101EAD4
:102C4000C0003449088010BD0146314A12784A4319
:102C50004FF0E0235A6100229A611A46126942F04D
:102C600001021A6100BF4FF0E022106900F001027A
:102C70001AB100F48032002AF5D04FF0E022126938
:102C800022F001024FF0E0231A6100229A6170479E
:102C90000146204A12884A434FF0E0235A6100223D
:102CA0009A611A46126942F001021A6100BF4FF0A0
:102CB000E022106900F001021AB100F48032002A0B
:102CC000F5D04FF0E022126922F001024FF0E0232C
:102CD0001A6100229A61704770B504464FF407707C
:102CE00094FBF0F0C6B24FF4077094FBF0F100FBD8
:102CF000114085B205E04FF40770FFF7C9FF701E61
:102D0000C6B2002EF7D115B12846FFF7C1FF70BD3E
:102D10002C0000202E0000201CB501214020FDF7D2
:102D2000A5FF4FF46040009001208DF804000020C2
:102D30008DF8060003208DF8050001208DF80700AE
:102D400069460448FDF7F4FC4FF460410148FDF783
:102D50006BFD1CBD0018024010B58AB0044601216D
:102D60000220FDF783FF01214806FDF7C8FF4FF45D
:102D70004070089002208DF8240000208DF8260075
:102D800003208DF8250001208DF8270008A96D4843
:102D9000FDF7CEFC092208216A48FDF754FD0922FF
:102DA00011466848FDF74FFD00208DF81A008DF898
:102DB0001B008DF81C0001208DF81D0000208DF8EF
:102DC0001E008DF81F008DF816408DF817000620A4
:102DD0008DF8180005208DF819000320ADF81400B7
:102DE00005A95948FEF7D9FA00208DF80E008DF894
:102DF0000F0001208DF810000020ADF80400ADF8A0
:102E00000600ADF80800ADF80A00ADF80C0001208E
:102E10008DF8110001A8FEF74AFB012202214A4861
:102E2000FEF744FE14208DF8000001208DF801000B
:102E300000208DF8020001208DF803006846FDF7A0
:102E400086FB00200AB010BD00B585B000F0C0F9C7
:102E50006A4600213C48FEF70EFD05B000BD2DE995
:102E6000F04186B005468846164600240195029535
:102E700000208DF80C008DF80D008DF80E6000BF5D
:102E800006E018F804100DF10F000155601C84B223
:102E9000B442F6DB01A92C48FEF7F8FB07460024F4
:102EA00001E0601C84B239462748FEF787FC18B958
:102EB00040F6FF708442F4DB40F6FF70844203DB8F
:102EC000012006B0BDE8F0810020FAE730B585B0FA
:102ED000054600211C48FEF751FD10B9002005B041
:102EE00030BD6A4600211848FEF7C5FC002404E006
:102EF0000DF10B00005D2855641C9DF80A00A042EE
:102F0000F6D89DF80A00EAE730B585B005460021FD
:102F10000D48FEF733FD10B9002005B030BD6A46FC
:102F200000210948FEF7A7FC002404E00DF10B0086
:102F3000005D2855641C9DF80A00A042F6D8009850
:102F400080B2EAE7000402400064004010B58AB095
:102F5000044601210220FDF789FE01214FF0C060E7
:102F6000FDF7CDFE4FF44050089002208DF824006C
:102F700000208DF8260003208DF8250001208DF813
:102F8000270008A94F48FDF7D3FB09220C214D4823
:102F9000FDF759FC09220D214A48FDF754FC002099
:102FA0008DF81A008DF81B008DF81C0001208DF89B
:102FB0001D0000208DF81E008DF81F008DF81640B2
:102FC0008DF8170006208DF8180005208DF81900DF
:102FD0000320ADF8140005A93B48FEF7DEF90E20EA
:102FE0008DF80E0000208DF80F0001208DF81000E4
:102FF0000020ADF80400ADF80600ADF80800ADF80B
:103000000A00ADF80C0001208DF8110001A8FEF7B0
:103010004EFA00200AB010BD2DE9F04186B00546F9
:103020008846164600240195029500208DF80C0074
:103030008DF80D008DF80E6000BF06E018F8041042
:103040000DF10F000155601C84B2B442F6DB01A9FA
:103050001D48FEF71BFB0746002401E0601C84B2FC
:1030600039461948FEF7AAFB18B940F6FF708442AA
:10307000F4DB40F6FF70844203DB012006B0BDE8BC
:10308000F0810020FAE730B585B0054600210E48F2
:10309000FEF774FC10B9002005B030BD6A4600216F
:1030A0000948FEF7E8FB002404E00DF10B00005D89
:1030B0002855641C9DF80A00A042F6D89DF80A0025
:1030C000EAE7000000040240006800407FB50546C2
:1030D0000C4601210846FDF712FE0295ADF80440AA
:1030E0000020ADF80600ADF80C0001A94FF08040BB
:1030F000FEF7DFFE012211469007FFF77BFB01215F
:103100008807FEF75FFF1C208DF8000001208DF876
:10311000010003208DF8020001208DF803006846AD
:10312000FDF715FA7FBD10B501218807FFF779FB80
:10313000012809D10748006808B9012000E00020F3
:103140000449086000F09CF801218807FFF77AFB2A
:1031500010BD0000B80243421CB501214020FDF71C
:1031600085FD8020009001208DF8040000208DF85E
:10317000060003208DF8050002208DF8070069463F
:103180001048FDF7D5FA80210E48FDF74FFB1CBD16
:1031900070B50446002500BF0DE000200A49086014
:1031A0006420FFF799FD01200849C1F89C026420C2
:1031B000FFF792FD6D1CA542EFDB0020024908607D
:1031C00070BD0000001802409C02434200004342D0
:1031D00010B52C48006808B9012000E000202949FA
:1031E00008602948FFF790FE2849088008460088B3
:1031F00027490988884205D1264823490A68026080
:103200004968416010BD10B5234B224A2349244828
:1032100000F088FB224890ED000B51EC100B00F001
:1032200014FE00B21F49088000201F4908801B4877
:1032300090ED000B51EC100B00F007FE00B21B49A3
:10324000088018480088000A194908701548007855
:10325000487015480088000A887013480078C870C4
:1032600012480088000A0871104800784871002050
:103270008871C871082240F28110FFF7F0FD10BD7F
:1032800070470000BC02434258000020600000204C
:1032900030000020320000205000002048000020B4
:1032A000400000206A0000206C0000206E0000201A
:1032B000620000201CB501210846FDF7D7FC0D2057
:1032C000009001208DF8040000208DF806000320F6
:1032D0008DF8050001208DF807006946F748FDF7D5
:1032E00027FA0E21F548FDF79FFA022000900020F2
:1032F0008DF8040003208DF8050001208DF80700EB
:103300006946EE48FDF714FA1CBD38B504460120A5
:1033100000900020EA4948700120009031E0BDF89B
:103320000000204018B10120E649086002E00020BA
:10333000E44908600120E349083108600520FFF7EF
:1033400083FC0020E049C1F88C020520FFF77CFCDB
:103350000120DC49083108600520FFF775FCDA48D8
:10336000D0F8000230B1D6484078BDF800100843CC
:10337000D3494870BDF800004FF6FF7101EA4000E4
:103380000090BDF80000FF28C9DD1020FFF75CFCAD
:1033900038BD10B50020CB49091D0860CB4908781D
:1033A000FFF7B3FFC9494878FFF7AFFF0120C649CF
:1033B000C1F88802C2484078732801D1002010BDAE
:1033C0000120FCE71CB500200190012000900020A6
:1033D000BC49091D0860BD490878FFF796FFBB4945
:1033E0004878FFF792FF0220019036E0012000901C
:1033F00027E00120B349083108600520FFF724FCCD
:103400000020B149C1F88C020520FFF71DFC012006
:10341000AD49C1F88C020846D0F8000250B1A84866
:103420009DF80410405CBDF800100843A4499DF8C5
:1034300004208854BDF800004FF6FF7101EA4000F7
:103440000090BDF80000FF28D3DD1020FFF7FCFB43
:103450009DF80400401CC0B201909DF804000928AA
:10346000C4DB01209749091D08601CBD002004E051
:103470000021934A1154411CC8B20928F8DB704757
:1034800010B5FFF7F3FFFFF79DFF8D48C0788C491B
:10349000097940EA01208E49088000240FE08D4818
:1034A00010F81400401E012101FA00F08849098833
:1034B000084010B9601CC0B210BD601CC4B2102C12
:1034C000EDDB0020F8E701467D48405C704770B5B1
:1034D00005460C4600207B49091D08601020FFF7B7
:1034E000B3FB0120FFF711FF4220FFF70EFF002082
:1034F000FFF70BFF2846FFF708FF2046FFF705FF01
:103500000020FFF702FF0020FFF7FFFE0020FFF77B
:10351000FCFE0020FFF7F9FE01206B49C1F888028C
:103520001020FFF791FB70BD10B500206549091D03
:1035300008601020FFF788FB0120FFF7E6FE42201D
:10354000FFF7E3FE0020FFF7E0FE0020FFF7DDFEBF
:103550000020FFF7DAFE01205B49C1F88802102045
:10356000FFF772FB10BD10B500205649091D086019
:103570001020FFF769FB0120FFF7C7FE4320FFF78C
:10358000C4FE0020FFF7C1FE0120FFF7BEFE0020B1
:10359000FFF7BBFE0020FFF7B8FE0020FFF7B5FEE7
:1035A0000020FFF7B2FE0020FFF7AFFE01204649E2
:1035B000C1F888021020FFF747FB10BD10B50020AE
:1035C0004049091D08600120FFF79FFE4420FFF7D6
:1035D0009CFE0020FFF799FE0120FFF796FEEE20EB
:1035E000FFF793FE0020FFF790FE0020FFF78DFE0F
:1035F0000020FFF78AFE0020FFF787FE01203249F6
:10360000C1F888021020FFF71FFB10BD10B5002085
:103610002C49091D08601020FFF716FB0120FFF759
:1036200074FE4D20FFF771FE0020FFF76EFE0020B4
:10363000FFF76BFE0120FFF768FE01202249C1F869
:1036400088021020FFF700FB10BD10B500201D49B7
:10365000091D08601020FFF7F7FA0120FFF755FE5B
:103660004320FFF752FE0020FFF74FFE0020FFF738
:103670004CFE5A20FFF749FE5A20FFF746FE5A201B
:10368000FFF743FE5A20FFF740FE5A20FFF73DFEAA
:1036900001200D49C1F888021020FFF7D5FA10BDAE
:1036A00010B5FFF741FFFFF73FFFFFF73DFFFFF7C3
:1036B0005AFFFFF783FFFFF7C8FF10BD000002406D
:1036C000BC00002084024042000040427200002002
:1036D000700000208800002010B50720FFF7F3FEDF
:1036E0000A4908600820FFF7EEFE09490860052036
:1036F000FFF7E9FE074908600620FFF7E4FE0649E8
:103700000860FFF7BDFE0549086010BD7400002089
:10371000780000207C000020800000208400002031
:1037200010B588B0044601210846FDF79FFA012133
:103730001020FDF7F5FA072209216948FDF783F803
:1037400007220A216648FDF77EF84FF4C060069014
:1037500002208DF81C008DF81D0000208DF81E0041
:1037600001208DF81F0006A95D48FCF7E1FF0294D7
:103770000020ADF80C00ADF80E00ADF81000ADF86B
:1037800014000C20ADF8120002A95648FDF729FCE0
:1037900001215448FDF7ADFC40215248FDF791FD51
:1037A000012240F225514F48FDF759FD25208DF8A3
:1037B000040001208DF8050005208DF80600012089
:1037C0008DF8070001A8FCF7C2FE08B010BD00BFCD
:1037D0004449098801F040010029F9D04149888015
:1037E000704770B504460D46E0B2FFF7F0FF00BF2A
:1037F00040213C48FDF758FD0028F9D0204670BD17
:1038000010B503460C46002200BF985CFFF7DFFFAF
:10381000501C82B2A242F8DB10BD10B540F2255117
:103820003048FDF757FD002858D02E48FDF790FC92
:10383000C4B2532C03D101202B4908704EE0452C13
:103840003AD12A492AA000F059F918B900202B4989
:1038500008601BE025492AA000F050F918B90120A2
:103860002649086012E0214928A000F047F920B954
:10387000012022491C39086008E01C4926A000F0FC
:103880003DF918B900201D491C390860002016496F
:10389000087009E000201549134A1278885412482C
:1038A0000078401C104908700F4800782028F1DB90
:1038B00000200D49087011E00B48007800280DDD4C
:1038C00009480078642809DC07480078401E074949
:1038D0000C5405480078401C0349087010BD0000D6
:1038E0000000024000100140A8000020C500002098
:1038F0004C696768745F6C6564310000B8024342CC
:10390000436C6F73655F6C65643100004F70656E6A
:103910005F62656570000000436C6F73655F626590
:10392000657000002DE9F0472DED0A8B07468846AB
:1039300091469A469FED5F0B87ED000B00210C46E8
:103940000D4600262FE02A0242EA1465240219F9E6
:103950000620D117104600231A46E31A75EB02021F
:103960000CDA4FF00042634262EB0502C31A71EBBE
:10397000020203DA00244FF0004513E000231A4648
:103980001B1BAA410CDA6FF00042D4F1FF3362EB4B
:1039900005021B1A8A4103DA4FF0FF34650801E083
:1039A00024184D41761C082ECDDB200E40EA052060
:1039B00041B2200C40EA054040B201EB002616F56A
:1039C000004F00DA3D4E304600F02EFA41EC1A0B63
:1039D0009FED3B0B53EC102B00F045F941EC190B1C
:1039E0009FED390B53EC102B00F0AFF941EC180BA5
:1039F000374890ED001BB0EE410AF0EE610A53EC3F
:103A0000102B9FED341B51EC110B00F02CF941EC05
:103A10001A0B51EC180B81F0004141EC1C0B9FED8F
:103A20002F0B53EC102B00F01EF941EC1B0B53EC49
:103A30001A2B00F012F941EC190B9FED2A0B53ECF5
:103A4000102B00F010F9C8E900019FED1D0B53EC9D
:103A5000102B51EC180B00F078F941EC190B9FED8D
:103A6000230B53EC102B00F0FEF8CAE9000151ECD7
:103A7000180B81F0004141EC1A0B9FED1E0B53EC2B
:103A8000102B00F0F0F841EC190B114890ED001BE1
:103A9000B0EE410AF0EE610A53EC102B51EC190B19
:103AA00000F03AF80A4A03C2BDEC0A8BBDE8F08781
:103AB0007047000000000000000000000080FFFFD1
:103AC000182D4454FB210940000000000094D1400F
:103AD000B0000020000000000000E03FCDCCCCCCC6
:103AE000CCCCECBF0000000000408F400000000084
:103AF000008066407B14AE47E17A843F10B5002217
:103B000000E0521C835C8C5CA34201D1002BF8D1F5
:103B1000D8B2E1B2401A10BD2DE9FE4F804681EACD
:103B20000300C00F0C46009021F0004123F0004537
:103B3000B8EB0200A94105D24046214690461C46FA
:103B40000B46024623F00040104347D0270DC7F331
:103B50000A00C3F30A510290401A019040286BDA20
:103B6000C3F3130040F4801B0098924620B1002359
:103B7000D2EB030A63EB0B0B01985946C0F14002EC
:103B8000504600F097F906460D4650465946019AB0
:103B900000F0AFF910EB08006141002487EA1152F0
:103BA00084EAE7731A4340D0009A62B3019A012A6B
:103BB0004FEA075215DC001B61EB02014FF0004297
:103BC00002EA0752CDE90042001C41F5801132465D
:103BD0002B4600F0AFF903B0BDE8F08F4046214618
:103BE000F9E7001B61EB0201001C41F5801300188E
:103BF0005B412018A2F5001747EB030140EAD5709E
:103C0000B6196D4111E06D084FEA360645EAC075F8
:103C10004FEA0752001B61EB0201001C41F58011C5
:103C200049084FEA30000019514132462B4603B093
:103C3000BDE8F04F00F06FB900980122400000236A
:103C4000D0EB020263EBE073009821464FEAE07488
:103C5000B8EB000061EB0401E9E783F000435BE7A8
:103C600081F0004158E72DE9FE4F81EA030404F09A
:103C7000004421F0004100944FF0000B23F000437A
:103C800050EA01045ED052EA03045BD0C3F30A5445
:103C9000C1F30A552C44A4F2F3340194A0FB02545E
:103CA000C1F3130141F48011C3F3130343F48013F0
:103CB00001FB024400FB034E840A970A44EA815444
:103CC00047EA8357A4FB076802958D0A05FB078521
:103CD0004FEA932C04FB0C542705029D4FEA06582B
:103CE00047EA1637B5EB08056EEB070C870E920E08
:103CF00047EA811742EA8312A7FB0201B6EB0B01E8
:103D000064EB00042B0D43EA0C335E1844EB1C50AB
:103D1000DA465146E7FB0201C5F313044FEA0B33C1
:103D200043EA14534FEA0432019C43EA0603A4F128
:103D30000C040294009CCDE900B400F0FBF803B041
:103D4000BDE8F08F00200146F9E72DE9F04D81EA4A
:103D5000030404F0004B21F0004514464FF0000A24
:103D600023F0004150EA050220D054EA01021DD0A0
:103D7000C5F30A570246C5F31303C1F31300C1F399
:103D80000A5640F4801543F48013A7EB0608101B75
:103D9000D64608F2FD3873EB050002D308F101089E
:103DA00001E092185B41B8F1000F03DA00200146F0
:103DB000BDE8F08D00204FF48011064684460EE0E9
:103DC000171B73EB050705D3121B63EB05030643B3
:103DD0004CEA010C49084FEA300092185B4150EA66
:103DE0000107EDD152EA030012D082EA040083EA0F
:103DF0000501084305D0101BAB4106D20122002368
:103E000006E000224FF0004302E06FF00102531081
:103E10001AEB06004CEB085110EB0A0041EB0B01CA
:103E2000BDE8F04D00F077B80EB5C10F80EAE07044
:103E30000844CA07002140F233438DE80E000A46C9
:103E40000B4600F077F803B000BD70B5C1F30A521D
:103E500001F000450024C1F3130140F2FF3341F4A7
:103E600080119A4201DA002070BD40F233439A4239
:103E7000A2F2334203DC524200F02BF800E0904003
:103E80002C43F1D0404270BD30B50B4601460020B6
:103E90002022012409E021FA02F59D4205D303FA0C
:103EA00002F5491B04FA02F52844151EA2F101028D
:103EB000F1DC30BD202A04DB203A00FA02F10020B8
:103EC00070479140C2F1200320FA03F31943904058
:103ED0007047202A04DB203A21FA02F000217047C3
:103EE00021FA02F3D040C2F1200291400843194662
:103EF0007047202A06DBCB17203A41FA02F043EA4A
:103F0000E07306E041FA02F3D040C2F12002914092
:103F100008431946704710B5141E73F1000408DAFF
:103F2000401C41F1000192185B411A4301D120F07D
:103F3000010010BD2DE9F04D92469B4611B1B1FA3A
:103F400081F202E0B0FA80F220329046FFF7B2FF31
:103F500004460F4640EA0A0041EA0B0153465A461E
:103F6000084313D0114653EA010019D0C8F14002AA
:103F70005046FFF7AEFF05460E46504659464246AC
:103F8000FFF798FF084305D0012004E0204639469A
:103F9000BDE8F08D0020054346EAE0762C43374328
:103FA0000A986305E40AA0EB08000022FD0A44EA2F
:103FB00047540A3002D500200146E9E701051019EF
:103FC0006941DDE9084500196941BDE8F04DA2E706
:103FD000064C074D06E0E06840F0010394E8070056
:103FE00098471034AC42F6D3FCF7D2F88841000869
:103FF000A84100080FB4054B10B503A9044A029864
:1040000000F018F810BC5DF814FB0000E33700085E
:104010000000002002E008C8121F08C1002AFAD1DF
:1040200070477047002001E001C1121F002AFBD138
:10403000704700002DE9FF4F89B09B4604460025DC
:1040400006E025280BD05A460B999047641C6D1C3E
:1040500020780028F5D10DB02846BDE8F08F002764
:10406000B8460122474900E0074314F8013F203BCE
:1040700002FA03F00842F7D120782E2819D114F85B
:10408000010F47F004072A280ED06FF02F02207886
:10409000A0F1300109290CD808EB880102EB41019D
:1040A00000EB0108641CF2E70A98641C50F8048BCA
:1040B0000A9020780028CED0642808D0692806D03D
:1040C00075281ED05A460B9990476D1C58E00A99E6
:1040D0004FF00A0901C90A91002802DA40422D2155
:1040E00002E0390504D52B218DF82010012103E0D1
:1040F000F90704D02021F7E78A4608AE0DE0002139
:10410000FAE70A994FF00A0901C90A91F7E7494607
:10411000FFF7BAFE303106F8011D0028F7D1ADEBEC
:10412000060000F12009780701D44FF00108C845C6
:1041300002DDA8EB090000E000208046002706E031
:1041400008A85A46C05D0B9990476D1C7F1C5745C7
:10415000F6DB04E030205A460B9990476D1CB8F10D
:104160000001A8F10108F5DC05E016F8010B5A463C
:104170000B9990476D1CB9F10001A9F10109F4DC1C
:10418000641C65E709280100A84100080000002020
:10419000BC0000001440000864420008BC0000207D
:1041A000740400002440000800000000000000002B
:1041B000007A030A0000000000000000010203046E
:1041C00006070809000000000102030401020304BD
:1041D0000607080900000000850500000000000037
:1041E00000000000000000000000000000000000CF
:1041F00000000000000000000000000000000000BF
:1042000000000000000000000000000000000000AE
:10421000000000000000000000000142000000005B
:10422000000000000000000000000000000000008E
:10423000010002000300040005000600070008005A
:1042400009000A000B000C000D000E000F0010000A
:10425000000000000000000000000000000000005E
:04426000000000005A
:040000050800018965
:00000001FF
